S00B00004E74692E73726563EE
S11300000C942A000C946C060C9495060C94BE0671
S11300100C9447000C9447000C9447000C94470040
S11300200C9447000C9447000C9447000C94470030
S11300300C9447000C9447000C9447000C94470020
S11300400C949F040C9447000C9447000C944700B4
S11300500C94470011241FBECFE5D8E0DEBFCDBF0E
S113006010E0A0E6B0E0E8EAFEE002C005900D92E0
S1130070A639B107D9F721E0A6E9B0E001C01D9285
S1130080A030B207E1F70E949A040C9452070C9432
S113009000000E94B9050E94D1030C94C002E82F0D
S11300A02091F3003091F4004091F5005091F60056
S11300B0AAE0B0E00E944707E0536E0F711D811D56
S11300C0911D6093F3007093F4008093F500909376
S11300D0F60008954F925F926F927F929F92AF9233
S11300E0BF92CF92DF92EF92FF920F931F93CF9321
S11300F0DF930E94CB0280936400843509F430C2FC
S113010080538A3098F48091F200813021F40E9467
S1130110FB031092F200809164000E940504809118
S113012064000E944F001092F0001AC280E30E9403
S11301304F006B017C01809164000E9405041091C2
S1130140970044E0149FE0011124C856DF4FC70113
S1130150B6012AE030E040E050E00E94190728830D
S113016039834A835B83C1E0C10FC0939700109227
S1130170F3001092F4001092F5001092F6008091B2
S11301806400833409F4A9C18D3369F1C091F2008C
S1130190C130E1F40E94FB036091FC007091FD000A
S11301A08091FE009091FF006093980070939900F5
S11301B080939A0090939B00C09397000E941B0425
S11301C0809164000E9405041092F20080919600D0
S11301D0E82FF0E0E950FF4F9091640090838F5F27
S11301E080939600BDC11092F0001091960000E03B
S11301F0D0E0D11708F099C08D2F90E0FC01E950B0
S1130200FF4F208101113EC02A32E9F4FC01EE0FB8
S1130210FF1FEE0FFF1FE856FF4F880F991F880F2F
S1130220991FDC01A456BF4F2D913D914D915C91D6
S113023060817181828193810E94E706608371836A
S11302408283938351C12F3209F06DC09C01220F28
S1130250331F220F331FD901A856BF4F7D01F90167
S1130260E456FF4F6D917D918D919C912081318158
S1130270428153810E941907F7012083318342830D
S1130280538332C12B32F9F4FC01EE0FFF1FEE0F42
S1130290FF1FE856FF4F880F991F880F991FDC0135
S11302A0A456BF4F4D915D916D917C918081918158
S11302B0A281B381840F951FA61FB71F80839183EA
S11302C0A283B38311C12D3271F5DC01AA0FBB1FC8
S11302D0AA0FBB1FA856BF4F880F991F880F991FDD
S11302E0FC01E456FF4F4D915D916D917C91139704
S11302F0C080D180E280F3804C195D096E097F09CA
S11303004D935D936D937C931397EEC08D2FE82FDF
S1130310F0E0E950FF4F918190838F5F8113F7CF15
S1130320C1501150D150DF5F64CF0F5F023009F02C
S11303305FCFC0906000B0906100A0906200909088
S1130340630000E0D0E0D11708F09DC08D2F90E04D
S1130350DD24D394DD0EFC01E950FF4F208101110F
S11303601FC02C118EC0FC01EE0FFF1FEE0FFF1FEC
S1130370E856FF4F880F991F880F991FDC01A45678
S1130380BF4F2D913D914D915C916081718182812E
S113039093810E94E7066083718382839383C3C041
S11303A00130F9F42B116DC09C01220F331F220F71
S11303B0331FA90148565F4F7A01F901E456FF4FF4
S11303C0DA016D917D918D919C91208131814281E1
S11303D053810E941907F701208331834283538399
S11303E0A2C00230E9F42A114CC0FC01EE0FFF1F39
S11303F0EE0FFF1FE856FF4F880F991F880F991FB4
S1130400DC01A456BF4F4D915D916D917C9180812B
S11304109181A281B381840F951FA61FB71F21C0AC
S113042029112FC0FC01EE0FFF1FEE0FFF1FE8562E
S1130430FF4F880F991F880F991FDC01A456BF4FE7
S113044040815181628173818D919D910D90BC9108
S1130450A02D2A013B01481A590A6A0A7B0AD301D2
S1130460C20180839183A283B3835DC0ED2FF0E04A
S1130470E950FF4F81818083DF5F1D13F7CFC150A7
S11304801150DD2D60CF0F5F043009F05BCFC093B6
S11304909700109396008091980090919900A091F4
S11304A09A00B0919B008093FC009093FD00A09370
S11304B0FE00B093FF0060E081E00E9407046091B9
S11304C098007091990080919A0090919B000E94ED
S11304D01B0481E08093F20002C00E94FB0310928F
S11304E09700109296003CC021E02D0F2C1708F0C5
S11304F00DCF822F90E0FC01EE0FFF1FEE0FFF1FC8
S1130500E456FF4F4081518162817381880F991FA6
S1130510880F991FFC01E856FF4F40835183628383
S113052073832F5FE3CF8D2D8C1708F09FCFE82FB7
S1130530F0E0DF01AA0FBB1FAA0FBB1FA456BF4FD9
S11305404D915D916D917C91EE0FFF1FEE0FFF1F9A
S1130550E856FF4F40835183628373838F5FE4CFF8
S1130560DF91CF911F910F91FF90EF90DF90CF908B
S1130570BF90AF909F907F906F905F904F90089541
S1130580CF93C2E161E08C2F0E94CC05CF5FC631CE
S1130590C9F7CF910895AF92BF92CF92DF92EF92B5
S11305A0FF920F931F93CF93DF9300E010E034E5A5
S11305B0D32E82E1C82EC00E60E08C2D0E94CC05A3
S11305C0C0E0D0E0B12CC801880F991F880F991F93
S11305D09C012B573F4F7901C130D10501F1AC2E5D
S11305E03BE1A30E8A2D0E944F0681111AC0FE0121
S11305F0EB19F109EE0DFF1DD0808FED9EE20197FE
S1130600F1F700C000008A2D0E944F068823D9F319
S11306108FED9EE20197F1F700C0000002C0BB24F9
S1130620B3942196C530D105B9F661E08C2D0E94B2
S1130630CC050F5F1F4F0430110509F0BACF8D2D83
S1130640DF91CF911F910F91FF90EF90DF90CF90AA
S1130650BF90AF900895CF93C82F60E083E00E94CD
S1130660CC05C4FB662760F988E00E94CC05C5FB75
S1130670662760F989E00E94CC05C6FB662760F90D
S11306808AE00E94CC056C2F661F6627661F8CE0EB
S11306900E94CC0561E082E00E94CC058FE99FE0D6
S11306A00197F1F700C0000060E082E00E94CC05F1
S11306B06C2F617088E00E94CC05C1FB662760F94D
S11306C089E00E94CC05C2FB662760F98AE00E949B
S11306D0CC05C3FB662760F98CE00E94CC0561E081
S11306E082E00E94CC058FE99FE00197F1F700C0FA
S11306F0000060E082E0CF910C94CC05CF93C82F2A
S113070061E083E00E94CC05C4FB662760F988E0C1
S11307100E94CC05C5FB662760F989E00E94CC05E0
S1130720C6FB662760F98AE00E94CC056C2F661F21
S11307306627661F8CE00E94CC0561E082E00E947F
S1130740CC058FE99FE00197F1F700C0000060E05D
S113075082E00E94CC056C2F617088E00E94CC0579
S1130760C1FB662760F989E00E94CC05C2FB6627BD
S113077060F98AE00E94CC05C3FB662760F98CE02F
S11307800E94CC0561E082E00E94CC058FE99FE0E5
S11307900197F1F700C0000060E082E0CF910C9473
S11307A0CC052FEF80E792E0215080409040E1F7A4
S11307B000C0000082E00E942B0388E20E942B0309
S11307C08FE99FE00197F1F700C000008CE00E94E0
S11307D02B038FE99FE00197F1F700C0000081E04F
S11307E00E942B038FE39FE10197F1F700C0000003
S11307F086E00C942B0381E00E942B038FE39FE19E
S11308000197F1F700C0000008950C947E03982F1F
S1130810862F911102C080580BC0913011F480547E
S113082007C0923011F48C5603C0933019F48C52E3
S11308300C942B0308954F925F926F927F92AF9224
S1130840BF92CF92DF92EF92FF921F93CF93DF93E9
S1130850CDB7DEB7A0970FB6F894DEBF0FBECDBFFD
S11308606B017C0197FF12C08DE20E947E03F0941D
S1130870E094D094C094C11CD11CE11CF11C80E014
S11308802AE0422E512C612C712C09C0672B682B55
S1130890692BA9F780E30E947E0310E01CC011E0DD
S11308A0180FAA24A394B12CAC0EBD1EA80EB11C23
S11308B087FDBA94C701B601A30192010E941907EA
S11308C0605DF501608369017A01812FC114D1044F
S11308D0E104F10421F7E1E0F0E0EC0FFD1FE10F8A
S11308E0F11D17FDFA951082FF24FA94F10EF7FC1E
S11308F00DC0E1E0F0E0EC0FFD1FEF0DF11DF7FC82
S1130900FA9580810E947E03FA94F1CFA0960FB6E7
S1130910F894DEBF0FBECDBFDF91CF911F91FF9042
S1130920EF90DF90CF90BF90AF907F906F905F90EB
S11309304F9008950E9449000E946A00FDCF1F92C3
S11309400F920FB60F9211242F933F934F935F93FF
S11309506F937F938F939F93AF93BF93EF93FF9383
S1130960E091E800F091E900309709F00995FF91D2
S1130970EF91BF91AF919F918F917F916F915F9113
S11309804F913F912F910F900FBE0F901F9018958C
S1130990982F9695969596958770613009F49AC02C
S11309A008F44BC0623009F0E3C09130B1F028F094
S11309B0923019F1933089F108954AB321E030E07F
S11309C0B90102C0660F771F8A95E2F7CB01942F15
S11309D0982B9ABB9BB3809547C047B321E030E086
S11309E0B90102C0660F771F8A95E2F7CB01942FF5
S11309F0982B97BB98B3809549C044B321E030E06D
S1130A00B90102C0660F771F8A95E2F7CB01942FD4
S1130A10982B94BB95B380954AC041B321E030E054
S1130A20B90102C0660F771F8A95E2F7CB01942FB4
S1130A30982B91BB92B380954BC09130C1F028F0B4
S1130A40923031F19330A9F108954AB321E030E0B6
S1130A50B90102C0660F771F8A95E2F7CB01809532
S1130A60942F98239ABB9BB389238BBB089547B3D8
S1130A7021E030E0B90102C0660F771F8A95E2F7E2
S1130A80CB018095942F982397BB98B389234BC0AF
S1130A9044B321E030E0B90102C0660F771F8A95A4
S1130AA0E2F7CB018095942F982394BB95B38923C7
S1130AB04CC041B321E030E0B90102C0660F771F9A
S1130AC08A95E2F7CB018095942F982391BB92B33A
S1130AD089234DC09130B9F028F0923031F1933030
S1130AE0B1F108954AB321E030E0B90102C0660FC4
S1130AF0771F8A95E2F7CB01962F909594239ABBA2
S1130B009BB3892BB2CF47B321E030E0B90102C0D7
S1130B10660F771F8A95E2F7CB01962F9095942361
S1130B2097BB98B3892B88BB089544B321E030E088
S1130B30B90102C0660F771F8A95E2F7CB01962FA1
S1130B409095942394BB95B3892B85BB089541B3A9
S1130B5021E030E0B90102C0660F771F8A95E2F701
S1130B60CB01962F9095942391BB92B3892B82BB92
S1130B7008950F931F93CF9305E610E0C0E0F801AA
S1130B8061918F018C2F0E94C804CF5FC032B9F7E6
S1130B90CF911F910F910895982F969596959695BC
S1130BA08770662319F06130F1F10895913099F05E
S1130BB028F09230E9F0933041F108954BB321E0ED
S1130BC030E0B90102C0660F771F8A95E2F7CB01C6
S1130BD0809584233BC048B321E030E0B90102C0D2
S1130BE0660F771F8A95E2F7CB01809584233BC07B
S1130BF045B321E030E0B90102C0660F771F8A9542
S1130C00E2F7CB01809584233BC042B321E030E07E
S1130C10B90102C0660F771F8A95E2F7CB01809570
S1130C20842382BB0895913099F028F09230E9F042
S1130C30933041F108954BB321E030E0B90102C093
S1130C40660F771F8A95E2F7CB01842B8BBB08953F
S1130C5048B321E030E0B90102C0660F771F8A95DE
S1130C60E2F7CB01842B88BB089545B321E030E043
S1130C70B90102C0660F771F8A95E2F7CB01842B76
S1130C8085BB089542B321E030E0B90102C0660F8C
S1130C90771F8A95E2F7CB01842B82BB0895282F16
S1130CA02770869586958695813049F030F082309C
S1130CB041F0833079F480B305C089B303C086B3AF
S1130CC001C083B390E002C0959587952A95E2F719
S1130CD0982F9170892F08951F920F920FB60F923B
S1130CE011242F933F934F935F936F937F938F932D
S1130CF09F93AF93BF93EF93FF93E091EE00F09136
S1130D00EF00309709F00995FF91EF91BF91AF91F2
S1130D109F918F917F916F915F914F913F912F910F
S1130D200F900FBE0F901F9018951F920F920FB641
S1130D300F9211242F933F934F935F936F937F935D
S1130D408F939F93AF93BF93EF93FF93E091EC0046
S1130D50F091ED00309709F00995FF91EF91BF9163
S1130D60AF919F918F917F916F915F914F913F913F
S1130D702F910F900FBE0F901F9018951F920F92F6
S1130D800FB60F9211242F933F934F935F936F935A
S1130D907F938F939F93AF93BF93EF93FF93E091D0
S1130DA0EA00F091EB00309709F00995FF91EF917B
S1130DB0BF91AF919F918F917F916F915F914F916F
S1130DC03F912F910F900FBE0F901F901895DB014C
S1130DD08F939F930E944707BF91AF91A29F800D6D
S1130DE0911DA39F900DB29F900D11240895A1E22F
S1130DF01A2EAA1BBB1BFD010DC0AA1FBB1FEE1F91
S1130E00FF1FA217B307E407F50720F0A21BB30BDB
S1130E10E40BF50B661F771F881F991F1A9469F757
S1130E2060957095809590959B01AC01BD01CF01B3
S1130E300895052E97FB1EF400940E94300757FD79
S1130E4007D00E94F70607FC03D04EF40C94300739
S1130E5050954095309521953F4F4F4F5F4F0895E2
S1130E6090958095709561957F4F8F4F9F4F089512
S1130E70A29FB001B39FC001A39F700D811D1124D7
S1130E80911DB29F700D811D1124911D08950E9422
S1130E903807A59F900DB49F900DA49F800D911DC0
S10B0EA011240895F894FFCF1A
S1130EA82A2F2B2D5400000202020202020202021F
S1130EB80202020202010202020202020202020108
S1130EC801020101012B3D30432D3332312A3635DD
S1090ED8342F3938370005
S9030000FC
